:100000000C942A000C94C1150C94F8150C942F161E
:100010000C94DA0D0C949D0D0C9447000C94600D1B
:100020000C94230D0C94E60C0C94A90C0C946C0C01
:100030000C9447000C9447000C9447000C94470024
:100040000C9447000C9447000C9447000C94470014
:100050000C94470011241FBECFE5D8E0DEBFCDBF12
:1000600010E0A0E6B0E0E8E2FEE402C005900D92E8
:10007000A83BB107D9F710E0A8EBB0E001C01D9292
:10008000A23EB107E1F70E94BD1E0C9412270C940A
:100090000000EF92FF920F931F937B018C0120E0F1
:1000A00030E040E05FE40E94490388238CF0C801FF
:1000B000B70120E030E040E05FE40E94C1010E940F
:1000C000A9039B01AC01205030404040504806C07D
:1000D000C801B7010E94A9039B01AC01B901CA0183
:1000E0001F910F91FF90EF900895A0E0B0E0EBE733
:1000F000F0E00C94DB26DC012B01FA019C9192309C
:1001000008F439C1EB018881823008F433C194309E
:1001100069F4843009F02FC111969C91119789815F
:10012000981709F428C1A5E9B0E025C1843009F485
:1001300021C18230A9F4923009F01DC19A01AD01AC
:1001400088E0EA010990AE01E90109929E0181501F
:10015000C1F7E201898111969C918923818308C1AD
:10016000923009F407C112962D903C901397EB0141
:100170008A819B811496AD90BD90CD90DC901797AD
:10018000EC80FD800E811F819101281B390BB90184
:1001900037FF04C066277727621B730B6032710537
:1001A0000CF061C0121613066CF537014801062EDB
:1001B00004C096948794779467940A94D2F721E0C8
:1001C00030E040E050E004C0220F331F441F551FB1
:1001D0006A95D2F721503040404050402E213F21B7
:1001E00040235123211531054105510521F021E01E
:1001F00030E040E050E079018A01E628F72808293C
:1002000019293CC0232BD1F1260E371E350146019A
:10021000062E04C096948794779467940A94D2F734
:1002200021E030E040E050E004C0220F331F441FC3
:10023000551F6A95D2F721503040404050402A2146
:100240003B214C215D21211531054105510521F04E
:1002500021E030E040E050E059016A01A628B728CB
:10026000C828D9280BC0821593052CF01C01AA249C
:10027000BB24650103C0EE24FF24870111969C91E5
:10028000D20111968C91981709F445C0992339F041
:10029000A80197012A193B094C095D0906C0A6016E
:1002A00095012E193F09400B510B57FD08C01182D3
:1002B0003382228224833583468357831DC081E0A5
:1002C00081833382228288279927DC01821B930B4A
:1002D000A40BB50B84839583A683B7830DC0220F2F
:1002E000331F441F551F24833583468357838281E0
:1002F000938101979383828324813581468157813D
:10030000DA01C9010197A109B1098F5F9F4FAF4F72
:10031000BF4328F30BC0918333822282EA0CFB1C7B
:100320000C1D1D1DE482F5820683178383E0808304
:10033000248135814681578157FF1AC0C901AA27F8
:1003400097FDA095BA2F81709070A070B0705695EF
:10035000479537952795822B932BA42BB52B848318
:100360009583A683B7838281938101969383828349
:10037000DF0101C0D201CD01CDB7DEB7E2E10C94BF
:10038000F726A0E2B0E0E7ECF1E00C94E726698301
:100390007A838B839C832D833E834F835887E9E048
:1003A000EE2EF12CEC0EFD1ECE010196B7010E943F
:1003B000D2048E010F5E1F4FCE010596B8010E9438
:1003C000D2048A8991E089278A8BC701B801AE01DE
:1003D000475E5F4F0E9475000E94FD03A096E6E015
:1003E0000C940327A0E2B0E0E8EFF1E00C94E726DC
:1003F00069837A838B839C832D833E834F835887C5
:10040000F9E0EF2EF12CEC0EFD1ECE010196B701A6
:100410000E94D2048E010F5E1F4FCE010596B801D7
:100420000E94D204C701B801AE01475E5F4F0E942F
:1004300075000E94FD03A096E6E00C940327A0E25D
:10044000B0E0E5E2F2E00C94DB2669837A838B83EB
:100450009C832D833E834F835887CE010196BE0136
:10046000675F7F4F0E94D204CE010596BE016F5E8A
:100470007F4F0E94D2049985923088F0898982301A
:10048000C8F0943019F4823051F404C0843029F457
:10049000923081F485E990E0C6C0923049F420E0C2
:1004A0009A858A89981321E02A87CE010996BBC0D4
:1004B000823049F420E09A858A89981321E02A8BBA
:1004C000CE014196B0C02D843E844F8458886D88FB
:1004D0007E888F88988CEE24FF248701AA24BB2471
:1004E000650140E050E060E070E0E0E0F0E0C10174
:1004F00081709070892BE9F0E60CF71C081D191D1E
:100500009A01AB012A0D3B1D4C1D5D1D80E090E062
:10051000A0E0B0E0E614F7040805190520F481E036
:1005200090E0A0E0B0E0BA01A901480F591F6A1F8E
:100530007B1FAA0CBB1CCC1CDD1C97FE08C081E0F5
:1005400090E0A0E0B0E0A82AB92ACA2ADB2A3196B6
:10055000E032F10549F0660C771C881C991C569412
:10056000479437942794C3CFFA85EA892B893C892D
:100570008B859C85280F391F2E5F3F4F17C0CA01FE
:1005800081709070892B61F016950795F794E79428
:1005900080E090E0A0E0B0E8E82AF92A0A2B1B2BC3
:1005A00076956795579547952F5F3F4F77FDE7CF36
:1005B0000CC0440F551F661F771F17FD4160EE0CDE
:1005C000FF1C001F111F21503040403090E05907A0
:1005D00090E0690790E4790760F32B8F3C8FDB0193
:1005E000CA018F779070A070B07080349105A1051A
:1005F000B10561F447FD0AC0E114F10401051105DC
:1006000029F0405C5F4F6F4F7F4F40781A8EFE1786
:1006100011F081E08A8F4D8F5E8F6F8F78A383E01A
:10062000898FCE0149960E94FD03A096E2E10C94C9
:10063000F726A8E1B0E0EFE1F3E00C94E726698348
:100640007A838B839C832D833E834F83588789E0F5
:10065000E82EF12CEC0EFD1ECE010196B7010E9492
:10066000D2048E010F5E1F4FCE010596B8010E9485
:10067000D2048985823040F08989823028F0C70110
:10068000B8010E944A0501C08FEF6896E6E00C941D
:100690000327A8E1B0E0EFE4F3E00C94E7266983D8
:1006A0007A838B839C832D833E834F83588789E095
:1006B000E82EF12CEC0EFD1ECE010196B7010E9432
:1006C000D2048E010F5E1F4FCE010596B8010E9425
:1006D000D2048985823040F08989823028F0C701B0
:1006E000B8010E944A0501C08FEF6896E6E00C94BD
:1006F0000327A8E1B0E0EFE7F3E00C94E726698375
:100700007A838B839C832D833E834F83588789E034
:10071000E82EF12CEC0EFD1ECE010196B7010E94D1
:10072000D2048E010F5E1F4FCE010596B8010E94C4
:10073000D2048985823040F08989823028F0C7014F
:10074000B8010E944A0501C081E06896E6E00C9479
:100750000327ACE0B0E0EFEAF3E00C94EB2669830A
:100760007A838B839C83CE010196BE016B5F7F4FA2
:100770000E94D2048D81823061F1823050F1843048
:1007800021F48E81882351F12EC02F81388537FDC9
:1007900020C06E812F3131051CF06623F9F023C093
:1007A0008EE190E0821B930B29853A854B855C8511
:1007B00004C056954795379527958A95D2F76623B5
:1007C000B1F050954095309521953F4F4F4F5F4F79
:1007D0000EC020E030E040E050E009C02FEF3FEFD6
:1007E0004FEF5FE704C020E030E040E050E8B9019F
:1007F000CA012C96E2E00C940727DF92EF92FF9259
:100800000F931F93FC01E480F58006811781D1804E
:100810008081823048F480E090E0A0E1B0E0E82AF6
:10082000F92A0A2B1B2BA5C0843009F49FC0823003
:1008300021F4EE24FF24870105C0E114F104010531
:10084000110519F4E0E0F0E096C0628173819FEF3A
:10085000623879070CF05BC022E83FEF261B370BAC
:100860002A3131052CF020E030E040E050E02AC091
:10087000B801A701022E04C0769567955795479554
:100880000A94D2F781E090E0A0E0B0E004C0880FC5
:10089000991FAA1FBB1F2A95D2F70197A109B10979
:1008A0008E219F21A023B1230097A105B10521F03E
:1008B00081E090E0A0E0B0E09A01AB01282B392B59
:1008C0004A2B5B2BDA01C9018F779070A070B07052
:1008D00080349105A105B10539F427FF09C0205CDA
:1008E0003F4F4F4F5F4F04C0215C3F4F4F4F5F4F13
:1008F000E0E0F0E02030A0E03A07A0E04A07A0E402
:100900005A0710F0E1E0F0E079018A0127C0603871
:10091000710564F5FB01E158FF4FD801C7018F77DE
:100920009070A070B07080349105A105B10539F4C4
:10093000E7FE0DC080E490E0A0E0B0E004C08FE3EB
:1009400090E0A0E0B0E0E80EF91E0A1F1B1F17FFA1
:1009500005C016950795F794E794319687E01695AC
:100960000795F794E7948A95D1F705C0EE24FF2404
:100970008701EFEFF0E06E2F679566276795902F60
:100980009F77D794DD24D7948E2F8695492F462BB9
:10099000582F5D29B701CA011F910F91FF90EF9069
:1009A000DF900895FC01DB01408151812281622F9B
:1009B0006F7770E0221F2227221F9381892F880FD3
:1009C000822B282F30E0991F9927991F11969C930D
:1009D000119721153105A9F54115510561057105DD
:1009E00011F482E037C082E89FEF13969C938E93B8
:1009F00012979A01AB0167E0220F331F441F551F66
:100A00006A95D1F783E08C930DC0220F331F441FEA
:100A1000551F12968D919C911397019713969C9355
:100A20008E931297203080E0380780E0480780E4FA
:100A3000580758F314962D933D934D935C93179755
:100A400008952F3F310579F4411551056105710570
:100A500019F484E08C93089564FF03C081E08C93C3
:100A600012C01C9210C02F57304013963C932E9307
:100A7000129783E08C9387E0440F551F661F771F02
:100A80008A95D1F7706414964D935D936D937C9322
:100A9000179708951F93DC01FB019C91923008F495
:100AA00047C08081823008F443C0943051F41196DD
:100AB0001C91843099F58181682F70E0611B710968
:100AC0003FC0843021F0923031F48230B9F181811D
:100AD000882389F12DC011961C9111978230F1F075
:100AE00081811817D9F412962D913C911397828128
:100AF00093818217930794F028173907BCF0149656
:100B00008D919D910D90BC91A02D248135814681C0
:100B10005781281739074A075B0718F4112341F05A
:100B20000AC082179307A407B50740F4112319F0F0
:100B300061E070E005C06FEF7FEF02C060E070E041
:100B4000CB011F910895DF93CF9300D000D0CDB794
:100B5000DEB79C838B8381E08A838B819C810097A5
:100B600009F410C4198207C48981882F90E09C0180
:100B7000220F331F220F331F220F331F8B819C81C3
:100B8000FC01E20FF31F80818B3409F009C18981D8
:100B9000882F90E09C01220F331F220F331F220F5A
:100BA000331F8B819C81FC01E20FF31F818188231D
:100BB00041F4A3E5B0E0E3E5F0E08081877B8C932E
:100BC00023C08981882F90E09C01220F331F220FC0
:100BD000331F220F331F8B819C81FC01E20FF31F17
:100BE0008181823079F4A3E5B0E0E3E5F0E0808133
:100BF00088608C93A3E5B0E0E3E5F0E080818F7B33
:100C00008C9302C082E08A838981882F90E09C01C6
:100C1000220F331F220F331F220F331F8B819C8122
:100C2000FC01E20FF31F84818630C0F4A3E5B0E03D
:100C3000E3E5F0E040818981882F90E09C01220F5C
:100C4000331F220F331F220F331F8B819C81FC0126
:100C5000E20FF31F8481842B8C9302C082E08A838D
:100C60008981882F90E09C01220F331F220F331FB0
:100C7000220F331F8B819C81FC01E20FF31F8281C5
:100C8000843008F5A3E5B0E0E3E5F0E08081482F8B
:100C90008981882F90E09C01220F331F220F331F80
:100CA000220F331F8B819C81FC01E20FF31F828195
:100CB000882F90E082959295907F9827807F982743
:100CC000842B8C9302C082E08A838981882F90E0F4
:100CD0009C01220F331F220F331F220F331F8B81E2
:100CE0009C81FC01E20FF31F8581813041F4A9E56D
:100CF000B0E0E9E5F0E0808181608C931BC08981E0
:100D0000882F90E09C01220F331F220F331F220FE8
:100D1000331F8B819C81FC01E20FF31F85818823A7
:100D200041F4A9E5B0E0E9E5F0E080818E7F8C93A5
:100D300001C01A828981882F90E09C01220F331F05
:100D4000220F331F220F331F8B819C81FC01E20F86
:100D5000F31F8681813041F4A9E5B0E0E9E5F0E0D8
:100D6000808182608C9304C38981882F90E09C01EC
:100D7000220F331F220F331F220F331F8B819C81C1
:100D8000FC01E20FF31F8681882341F4A9E5B0E05E
:100D9000E9E5F0E080818D7F8C93EAC21A82E8C297
:100DA0008981882F90E09C01220F331F220F331F6F
:100DB000220F331F8B819C81FC01E20FF31F808186
:100DC000823209F0B7C18981882F90E09C01220FFF
:100DD000331F220F331F220F331F8B819C81FC0195
:100DE000E20FF31F8181882379F4AFE4B0E0EFE4F0
:100DF000F0E080818C7F8C93AEE4B0E0EEE4F0E034
:100E00008081877E8C935DC08981882F90E09C01D2
:100E1000220F331F220F331F220F331F8B819C8120
:100E2000FC01E20FF31F8181823091F08981882FCC
:100E300090E09C01220F331F220F331F220F331F1C
:100E40008B819C81FC01E20FF31F81818430B1F41E
:100E5000AFE4B0E0EFE4F0E080818C7F8C93AEE40F
:100E6000B0E0EEE4F0E08081877E8C93AEE4B0E009
:100E7000EEE4F0E0808188608C9323C08981882F24
:100E800090E09C01220F331F220F331F220F331FCC
:100E90008B819C81FC01E20FF31F81818C3079F4FE
:100EA000AFE4B0E0EFE4F0E080818C7F8C93AEE4BF
:100EB000B0E0EEE4F0E0808188618C9302C082E0D3
:100EC0008A838981882F90E09C01220F331F220F93
:100ED000331F220F331F8B819C81FC01E20FF31F14
:100EE00084818630C0F4AEE4B0E0EEE4F0E040810E
:100EF0008981882F90E09C01220F331F220F331F1E
:100F0000220F331F8B819C81FC01E20FF31F848130
:100F1000842B8C9302C082E08A838981882F90E0A1
:100F20009C01220F331F220F331F220F331F8B818F
:100F30009C81FC01E20FF31F8281843020F5AFE435
:100F4000B0E0EFE4F0E08081482F8981882F90E0C5
:100F50009C01220F331F220F331F220F331F8B815F
:100F60009C81FC01E20FF31F8281882F90E0002416
:100F7000969587950794969587950794982F802D39
:100F8000842B8C9302C082E08A838981882F90E031
:100F90009C01220F331F220F331F220F331F8B811F
:100FA0009C81FC01E20FF31F8381843008F5AFE4DC
:100FB000B0E0EFE4F0E08081482F8981882F90E055
:100FC0009C01220F331F220F331F220F331F8B81EF
:100FD0009C81FC01E20FF31F8381882F90E08295B2
:100FE0009295907F9827807F9827842B8C9302C0BE
:100FF00082E08A838981882F90E09C01220F331F31
:10100000220F331F220F331F8B819C81FC01E20FC3
:10101000F31F8581813041F4A9E5B0E0E9E5F0E016
:10102000808184608C931BC08981882F90E09C0113
:10103000220F331F220F331F220F331F8B819C81FE
:10104000FC01E20FF31F8581882341F4A9E5B0E09C
:10105000E9E5F0E080818B7F8C9301C01A82898161
:10106000882F90E09C01220F331F220F331F220F85
:10107000331F8B819C81FC01E20FF31F868181303D
:1010800041F4A9E5B0E0E9E5F0E0808180618C936E
:101090001BC08981882F90E09C01220F331F220FF3
:1010A000331F220F331F8B819C81FC01E20FF31F42
:1010B0008681882341F4A9E5B0E0E9E5F0E080818C
:1010C0008F7E8C9301C01A828981882F90E09C01C9
:1010D000220F331F220F331F220F331F8B819C815E
:1010E000FC01E20FF31F8781813041F4A9E5B0E0F4
:1010F000E9E5F0E0808188608C933AC18981882F8E
:1011000090E09C01220F331F220F331F220F331F49
:101110008B819C81FC01E20FF31F8781882341F4BE
:10112000A9E5B0E0E9E5F0E08081877F8C9320C1FC
:101130001A821EC18981882F90E09C01220F331FE3
:10114000220F331F220F331F8B819C81FC01E20F82
:10115000F31F8081883509F009C18981882F90E0CB
:101160009C01220F331F220F331F220F331F8B814D
:101170009C81FC01E20FF31F8181882341F4A5E4E7
:10118000B0E0E5E4F0E08081877B8C9323C0898127
:10119000882F90E09C01220F331F220F331F220F54
:1011A000331F8B819C81FC01E20FF31F8181823010
:1011B00079F4A5E4B0E0E5E4F0E0808188608C9308
:1011C000A5E4B0E0E5E4F0E080818F7B8C9302C081
:1011D00082E08A838981882F90E09C01220F331F4F
:1011E000220F331F220F331F8B819C81FC01E20FE2
:1011F000F31F84818830C0F4A5E4B0E0E5E4F0E0BA
:1012000040818981882F90E09C01220F331F220F9B
:10121000331F220F331F8B819C81FC01E20FF31FD0
:101220008481842B8C9302C082E08A838981882FF9
:1012300090E09C01220F331F220F331F220F331F18
:101240008B819C81FC01E20FF31F8281843008F5C1
:10125000A5E4B0E0E5E4F0E08081482F8981882FA3
:1012600090E09C01220F331F220F331F220F331FE8
:101270008B819C81FC01E20FF31F8281882F90E01B
:1012800082959295907F9827807F9827842B8C93C6
:1012900002C082E08A838981882F90E09C01220F1E
:1012A000331F220F331F220F331F8B819C81FC01C0
:1012B000E20FF31F8581813041F4A9E5B0E0E9E553
:1012C000F0E0808180648C931BC08981882F90E03E
:1012D0009C01220F331F220F331F220F331F8B81DC
:1012E0009C81FC01E20FF31F8581882341F4A9E56D
:1012F000B0E0E9E5F0E080818F7B8C9301C01A8239
:101300008981882F90E09C01220F331F220F331F09
:10131000220F331F8B819C81FC01E20FF31F86811A
:10132000813041F4A9E5B0E0E9E5F0E08081806832
:101330008C931EC08981882F90E09C01220F331F5F
:10134000220F331F220F331F8B819C81FC01E20F80
:10135000F31F8681882341F4A9E5B0E0E9E5F0E0D8
:1013600080818F778C9304C01A8202C082E08A83C6
:1013700089818F5F898390919D008981891708F405
:10138000F3CB02C083E08A838A810F900F900F9085
:101390000F90CF91DF910895DF93CF9300D000D0CD
:1013A000CDB7DEB79B838A836C8319828A819B8148
:1013B000009709F44CC08C81863008F04AC0EA815D
:1013C000FB8180818B3491F4A3E5B0E0E3E5F0E0AC
:1013D0008081887F8C93A3E5B0E0E3E5F0E0908125
:1013E0008C81892B8C9381E0898333C0EA81FB81D6
:1013F0008081823291F4AEE4B0E0EEE4F0E08081EE
:10140000887F8C93AEE4B0E0EEE4F0E090818C81D4
:10141000892B8C9381E089831CC0EA81FB818081C8
:10142000883591F4A5E4B0E0E5E4F0E08081887FC0
:101430008C93A5E4B0E0E5E4F0E090818C81892B09
:101440008C9381E0898305C082E0898302C083E0B8
:10145000898389810F900F900F900F90CF91DF912A
:101460000895DF93CF9300D000D000D0CDB7DEB782
:101470008A837C836B8381E089838A81282F30E093
:101480003E832D838D819E8187319105D9F02D81F9
:101490003E812831310534F48D819E818E30910555
:1014A00061F02DC02D813E8120323105B9F08D8152
:1014B0009E8189329105F1F022C0ECE5F0E08B814C
:1014C00080831EC0EBE4F0E08B819C81892F9927FB
:1014D0008083EAE4F0E08B81808312C0E9E4F0E0ED
:1014E0008B819C81892F99278083E8E4F0E08B81B0
:1014F000808306C0E3E4F0E08B81808301C0198221
:10150000898126960FB6F894DEBF0FBECDBFCF916E
:10151000DF910895DF93CF9300D000D00F92CDB725
:10152000DEB79B838A837D836C8319828A819B814A
:10153000009709F441C0EA81FB8180818B3461F41A
:10154000E2E5F0E08081882F90E0EC81FD819183DD
:10155000808381E0898332C0EA81FB81808182328D
:10156000B9F4ECE4F0E08081882F90E0EC81FD811B
:1015700091838083EDE4F0E08081882F90E0982FC4
:101580008827EC81FD819183808381E0898316C067
:10159000EA81FB818081883561F4E4E4F0E08081B8
:1015A000882F90E0EC81FD819183808381E08983A5
:1015B00005C082E0898302C083E0898389810F901E
:1015C0000F900F900F900F90CF91DF910895DF93C0
:1015D000CF9300D000D00F92CDB7DEB79B838A8324
:1015E0007D836C8319828A819B81009771F1EA81E6
:1015F000FB8180818B3439F4E2E5F0E08C818083DB
:1016000081E0898324C0EA81FB818081823271F488
:10161000EDE4F0E08C819D81892F99278083ECE4B3
:10162000F0E08C81808381E0898311C0EA81FB81B5
:101630008081883539F4E4E4F0E08C81808381E0B6
:10164000898305C082E0898302C083E08983898120
:101650000F900F900F900F900F90CF91DF91089502
:10166000DF93CF9300D0CDB7DEB78A8319828A810A
:101670008830B8F48A818530A1F0A9E5B0E0E9E5C9
:10168000F0E08081482F8A81282F30E081E090E0CF
:10169000022E02C0880F991F0A94E2F7842B8C93C4
:1016A00001C0198289810F900F90CF91DF91089529
:1016B000DF93CF9300D0CDB7DEB78A8319828A81BA
:1016C0008830C0F48A818530A9F0A9E5B0E0E9E569
:1016D000F0E08081482F8A81282F30E081E090E07F
:1016E000022E02C0880F991F0A94E2F78095842386
:1016F0008C9301C0198289810F900F90CF91DF9157
:101700000895DF93CF9300D000D00F92CDB7DEB70E
:101710008A836B8381E089838B81843008F06DC07C
:101720008A81282F30E03D832C838C819D818731F5
:10173000910541F12C813D812831310534F48C81B2
:101740009D818E30910561F056C02C813D81203203
:10175000310569F18C819D8189329105D1F14BC0B0
:10176000A3E5B0E0E3E5F0E08081282F8B81882FAE
:1017700090E082959295907F9827807F9827822B82
:101780008C933DC0AFE4B0E0EFE4F0E08081282F1F
:101790008B81882F90E000249695879507949695E5
:1017A00087950794982F802D822B8C9328C0AFE4C7
:1017B000B0E0EFE4F0E08081282F8B81882F90E06B
:1017C00082959295907F9827807F9827822B8C9383
:1017D00016C0A5E4B0E0E5E4F0E08081282F8B811D
:1017E000882F90E082959295907F9827807F982708
:1017F000822B8C9304C0198202C082E08983898184
:101800000F900F900F900F900F90CF91DF91089550
:10181000DF93CF9300D000D000D0CDB7DEB78A835E
:101820007C836B835E834D8381E089838B819C8184
:10183000009709F445C08D819E81009709F440C04E
:101840008A818530C8F48A81882F90E0880F991F9B
:10185000FC01E854FF4F8B819C81918380838A81B6
:10186000882F90E0880F991FFC01EA53FF4F8D816C
:101870009E819183808326C08A818530F8F08A8199
:101880008830E0F48A8181508A838A81882F90E0B1
:10189000880F991FFC01E854FF4F8B819C81918335
:1018A00080838A81882F90E0880F991FFC01EA537A
:1018B000FF4F8D819E819183808304C0198202C075
:1018C00083E08983898126960FB6F894DEBF0FBE28
:1018D000CDBFCF91DF9108951F920F920FB60F9257
:1018E00011242F933F934F935F936F937F938F9325
:1018F0009F93AF93BF93EF93FF93DF93CF93CDB7B6
:10190000DEB78091B8009091B900009779F080918E
:10191000C6009091C700009749F0E091B800F0919F
:10192000B9008091C6009091C7000995CF91DF91D1
:10193000FF91EF91BF91AF919F918F917F916F91A7
:101940005F914F913F912F910F900FBE0F901F907D
:1019500018951F920F920FB60F9211242F933F9359
:101960004F935F936F937F938F939F93AF93BF93A7
:10197000EF93FF93DF93CF93CDB7DEB78091BA009B
:101980009091BB00009779F08091C8009091C900B8
:10199000009749F0E091BA00F091BB008091C80037
:1019A0009091C9000995CF91DF91FF91EF91BF917F
:1019B000AF919F918F917F916F915F914F913F91E7
:1019C0002F910F900FBE0F901F9018951F920F929E
:1019D0000FB60F9211242F933F934F935F936F9302
:1019E0007F938F939F93AF93BF93EF93FF93DF9377
:1019F000CF93CDB7DEB78091BC009091BD0000972A
:101A000079F08091CA009091CB00009749F0E09165
:101A1000BC00F091BD008091CA009091CB00099567
:101A2000CF91DF91FF91EF91BF91AF919F918F91F6
:101A30007F916F915F914F913F912F910F900FBECA
:101A40000F901F9018951F920F920FB60F921124AE
:101A50002F933F934F935F936F937F938F939F93B6
:101A6000AF93BF93EF93FF93DF93CF93CDB7DEB7E1
:101A70008091BE009091BF00009779F08091CC00DA
:101A80009091CD00009749F0E091BE00F091BF0029
:101A90008091CC009091CD000995CF91DF91FF917D
:101AA000EF91BF91AF919F918F917F916F915F91D6
:101AB0004F913F912F910F900FBE0F901F9018954F
:101AC0001F920F920FB60F9211242F933F934F93B3
:101AD0005F936F937F938F939F93AF93BF93EF9396
:101AE000FF93DF93CF93CDB7DEB78091C000909185
:101AF000C100009779F08091CE009091CF000097BF
:101B000049F0E091C000F091C1008091CE00909129
:101B1000CF000995CF91DF91FF91EF91BF91AF91E8
:101B20009F918F917F916F915F914F913F912F91F5
:101B30000F900FBE0F901F9018951F920F920FB627
:101B40000F9211242F933F934F935F936F937F9343
:101B50008F939F93AF93BF93EF93FF93DF93CF93B5
:101B6000CDB7DEB78091C2009091C300009779F0A5
:101B70008091D0009091D100009749F0E091C2008F
:101B8000F091C3008091D0009091D1000995CF9140
:101B9000DF91FF91EF91BF91AF919F918F917F91D5
:101BA0006F915F914F913F912F910F900FBE0F90CA
:101BB0001F9018951F920F920FB60F9211242F931A
:101BC0003F934F935F936F937F938F939F93AF93C5
:101BD000BF93EF93FF93DF93CF93CDB7DEB78091A1
:101BE000C4009091C500009779F08091D200909147
:101BF000D300009749F0E091C400F091C5008091B6
:101C0000D2009091D3000995CF91DF91FF91EF9190
:101C1000BF91AF919F918F917F916F915F914F9104
:101C20003F912F910F900FBE0F901F901895DF934B
:101C3000CF9300D000D0CDB7DEB79C838B8381E0FB
:101C40008A838B819C81009709F4B6C21982ADC248
:101C50008981282F30E0C901880F991F880F991FAB
:101C6000280F391F8B819C81FC01E20FF31F8081BB
:101C70008B3409F09FC08981282F30E0C901880F7B
:101C8000991F880F991F280F391F8B819C81FC0198
:101C9000E20FF31F8181833041F4A3E5B0E0E3E577
:101CA000F0E0808188648C9323C08981282F30E004
:101CB000C901880F991F880F991F280F391F8B8121
:101CC0009C81FC01E20FF31F8181813079F4A3E54F
:101CD000B0E0E3E5F0E0808180648C93A3E5B0E0C0
:101CE000E3E5F0E08081877F8C9302C082E08A8305
:101CF0008981282F30E0C901880F991F880F991F0B
:101D0000280F391F8B819C81FC01E20FF31F848116
:101D10008630C0F4A3E5B0E0E3E5F0E040818981DE
:101D2000282F30E0C901880F991F880F991F280FAD
:101D3000391F8B819C81FC01E20FF31F8481842B6E
:101D40008C9302C082E08A838981282F30E0C90108
:101D5000880F991F880F991F280F391F8B819C812D
:101D6000FC01E20FF31F8281843008F5A3E5B0E0A7
:101D7000E3E5F0E08081482F8981282F30E0C90118
:101D8000880F991F880F991F280F391F8B819C81FD
:101D9000FC01E20FF31F8281882F90E082959295DB
:101DA000907F9827807F9827842B8C93FBC182E0BB
:101DB0008A83F8C18981282F30E0C901880F991FD3
:101DC000880F991F280F391F8B819C81FC01E20F1E
:101DD000F31F8081823209F031C18981282F30E0E0
:101DE000C901880F991F880F991F280F391F8B81F0
:101DF0009C81FC01E20FF31F8181803108F082C0D9
:101E00008981282F30E0C901880F991F880F991FF9
:101E1000280F391F8B819C81FC01E20FF31F818108
:101E2000882309F46FC08981282F30E0C901880F09
:101E3000991F880F991F280F391F8B819C81FC01E6
:101E4000E20FF31F8181843009F45CC08981282F5F
:101E500030E0C901880F991F880F991F280F391F7B
:101E60008B819C81FC01E20FF31F81818C3009F48E
:101E700049C08981282F30E0C901880F991F880F38
:101E8000991F280F391F8B819C81FC01E20FF31FE2
:101E900081818D30B9F1AFE4B0E0EFE4F0E0808112
:101EA000482F8981282F30E0C901880F991F880F9A
:101EB000991F280F391F8B819C81FC01E20FF31FB2
:101EC00081818370842B8C93AEE4B0E0EEE4F0E08B
:101ED0008081482F8981282F30E0C901880F991F00
:101EE000880F991F280F391F8B819C81FC01E20FFD
:101EF000F31F8181882F90E0880F991F8871842BB0
:101F00008C9302C082E08A838981282F30E0C90146
:101F1000880F991F880F991F280F391F8B819C816B
:101F2000FC01E20FF31F84818630C0F4AEE4B0E020
:101F3000EEE4F0E040818981282F30E0C901880F6C
:101F4000991F880F991F280F391F8B819C81FC01D5
:101F5000E20FF31F8481842B8C9302C082E08A837A
:101F60008981282F30E0C901880F991F880F991F98
:101F7000280F391F8B819C81FC01E20FF31F8281A6
:101F8000843020F5AFE4B0E0EFE4F0E08081482F4A
:101F90008981282F30E0C901880F991F880F991F68
:101FA000280F391F8B819C81FC01E20FF31F828176
:101FB000882F90E0002496958795079496958795AD
:101FC0000794982F802D842B8C9302C082E08A8303
:101FD0008981282F30E0C901880F991F880F991F28
:101FE000280F391F8B819C81FC01E20FF31F838135
:101FF000843008F5AFE4B0E0EFE4F0E08081482FF2
:102000008981282F30E0C901880F991F880F991FF7
:10201000280F391F8B819C81FC01E20FF31F838104
:10202000882F90E082959295907F9827807F9827BF
:10203000842B8C93B7C082E08A83B4C08981282F17
:1020400030E0C901880F991F880F991F280F391F89
:102050008B819C81FC01E20FF31F8081883509F0A0
:102060009FC08981282F30E0C901880F991F880FF0
:10207000991F280F391F8B819C81FC01E20FF31FF0
:102080008181833041F4A5E4B0E0E5E4F0E08081B3
:1020900088648C9323C08981282F30E0C901880F80
:1020A000991F880F991F280F391F8B819C81FC0174
:1020B000E20FF31F8181813079F4A5E4B0E0E5E41B
:1020C000F0E0808180648C93A5E4B0E0E5E4F0E08A
:1020D0008081877F8C9302C082E08A838981282F48
:1020E00030E0C901880F991F880F991F280F391FE9
:1020F0008B819C81FC01E20FF31F84818830C0F446
:10210000A5E4B0E0E5E4F0E040818981282F30E0EB
:10211000C901880F991F880F991F280F391F8B81BC
:102120009C81FC01E20FF31F8481842B8C9302C0FD
:1021300082E08A838981282F30E0C901880F991FA6
:10214000880F991F280F391F8B819C81FC01E20F9A
:10215000F31F8281843008F5A5E4B0E0E5E4F0E007
:102160008081482F8981282F30E0C901880F991F6D
:10217000880F991F280F391F8B819C81FC01E20F6A
:10218000F31F8281882F90E082959295907F982707
:10219000807F9827842B8C9305C082E08A8302C0BD
:1021A00082E08A8389818F5F89839091AE008981E3
:1021B000891708F44DCD02C083E08A838A810F908D
:1021C0000F900F900F90CF91DF910895DF93CF93F1
:1021D00000D000D0CDB7DEB79B838A836C83198291
:1021E0008A819B81009709F44CC08C81863008F06D
:1021F0004AC0EA81FB8180818B3491F4A3E5B0E091
:10220000E3E5F0E08081887F8C93A3E5B0E0E3E52F
:10221000F0E090818C81892B8C9381E0898333C09D
:10222000EA81FB818081823291F4AEE4B0E0EEE499
:10223000F0E08081887F8C93AEE4B0E0EEE4F0E0E3
:1022400090818C81892B8C9381E089831CC0EA81E9
:10225000FB818081883591F4A5E4B0E0E5E4F0E00D
:102260008081887F8C93A5E4B0E0E5E4F0E0908184
:102270008C81892B8C9381E0898305C082E08983DE
:1022800002C083E0898389810F900F900F900F9097
:10229000CF91DF910895DF93CF9300D000D000D08D
:1022A000CDB7DEB78A837C836B8381E089838A81A3
:1022B000282F30E03E832D838D819E8187319105CB
:1022C000D9F02D813E812831310534F48D819E81F4
:1022D0008E30910561F02DC02D813E812032310577
:1022E000B9F08D819E8189329105F1F022C0ECE533
:1022F000F0E08B8180831EC0EBE4F0E08B819C8159
:10230000892F99278083EAE4F0E08B81808312C0D3
:10231000E9E4F0E08B819C81892F99278083E8E4B0
:10232000F0E08B81808306C0E3E4F0E08B81808362
:1023300001C01982898126960FB6F894DEBF0FBEC0
:10234000CDBFCF91DF910895DF93CF9300D000D020
:102350000F92CDB7DEB78A836B8381E089838B814F
:10236000843008F06DC08A81282F30E03D832C83B3
:102370008C819D818731910541F12C813D812831EE
:10238000310534F48C819D818E30910561F056C009
:102390002C813D812032310569F18C819D8189320A
:1023A0009105D1F14BC0A3E5B0E0E3E5F0E0808119
:1023B000282F8B81882F90E082959295907F982787
:1023C000807F9827822B8C933DC0AFE4B0E0EFE490
:1023D000F0E08081282F8B81882F90E00024969553
:1023E00087950794969587950794982F802D822B33
:1023F0008C9328C0AFE4B0E0EFE4F0E08081282FB8
:102400008B81882F90E082959295907F9827807F8E
:102410009827822B8C9316C0A5E4B0E0E5E4F0E0A9
:102420008081282F8B81882F90E082959295907FD4
:102430009827807F9827822B8C9304C0198202C032
:1024400082E0898389810F900F900F900F900F90F9
:10245000CF91DF910895DF93CF9300D0CDB7DEB752
:102460009A838983E6E4F0E089818083E7E4F0E001
:1024700089819A81892F9927808381E00F900F901D
:10248000CF91DF910895DF93CF93CDB7DEB7F89466
:1024900081E0CF91DF910895DF93CF93CDB7DEB781
:1024A000789481E0CF91DF910895DF93CF93CDB7FA
:1024B000DEB7F89481E0CF91DF910895DF93CF9359
:1024C000CDB7DEB72A970FB6F894DEBF0FBECDBFEB
:1024D0009C838B831A828B819C81009709F49EC117
:1024E000198295C18981282F30E0C901880F991F71
:1024F000280F391F8B819C81FC01E20FF31F828121
:10250000882309F07EC0A5E5B0E0E5E5F0E0808134
:102510008C7F8C938981282F30E0C901880F991F07
:10252000280F391F8B819C81FC01E20FF31F8081F2
:10253000282F30E03A87298789859A858A34910542
:10254000B1F029853A852B3431055CF489859A856B
:102550008C309105E1F029853A852A33310501F166
:102560001EC089859A858036910549F018C0A5E579
:10257000B0E0E5E5F0E0808181608C9311C0A5E5D5
:10258000B0E0E5E5F0E0808182608C9309C0A5E5CC
:10259000B0E0E5E5F0E0808183608C9301C01A82B1
:1025A0008981282F30E0C901880F991F280F391F12
:1025B0008B819C81FC01E20FF31F8181813041F40A
:1025C000ABE5B0E0EBE5F0E0808180648C931CC16A
:1025D0008981282F30E0C901880F991F280F391FE2
:1025E0008B819C81FC01E20FF31F8181882309F01C
:1025F0000BC1ABE5B0E0EBE5F0E080818F7B8C9325
:1026000003C18981282F30E0C901880F991F280F45
:10261000391F8B819C81FC01E20FF31F8281813085
:1026200009F081C0A5E5B0E0E5E5F0E08081837FB9
:102630008C938981282F30E0C901880F991F280FBA
:10264000391F8B819C81FC01E20FF31F8081282FB1
:1026500030E038872F838F8198858A349105B1F0D7
:102660002F8138852B3431055CF48F8198858C302F
:102670009105E1F02F8138852A33310509F11EC01B
:102680008F8198858036910549F018C0A5E5B0E0A6
:10269000E5E5F0E0808184608C9312C0A5E5B0E0B0
:1026A000E5E5F0E0808188608C930AC0A5E5B0E0A4
:1026B000E5E5F0E080818C608C9302C082E08A8343
:1026C0008981282F30E0C901880F991F280F391FF1
:1026D0008B819C81FC01E20FF31F8181813041F4E9
:1026E000ABE5B0E0EBE5F0E0808180688C938CC0D6
:1026F0008981282F30E0C901880F991F280F391FC1
:102700008B819C81FC01E20FF31F8181882341F4BE
:10271000ABE5B0E0EBE5F0E080818F778C9374C09F
:1027200082E08A8371C08981282F30E0C901880F37
:10273000991F280F391F8B819C81FC01E20FF31F29
:102740008281823009F05EC0A4E5B0E0E4E5F0E00B
:1027500080818F7B8C938981282F30E0C901880F7D
:10276000991F280F391F8B819C81FC01E20FF31FF9
:102770008081282F30E03E832D838D819E818C3097
:10278000910531F02D813E812036310559F008C088
:10279000A4E5B0E0E4E5F0E0808180648C9302C0C1
:1027A00082E08A838981282F30E0C901880F991F30
:1027B000280F391F8B819C81FC01E20FF31F81815F
:1027C000813041F4ABE5B0E0EBE5F0E08081806280
:1027D0008C931AC08981282F30E0C901880F991F76
:1027E000280F391F8B819C81FC01E20FF31F81812F
:1027F000882351F4ABE5B0E0EBE5F0E080818F7D1C
:102800008C9302C082E08A8389818F5F8983909153
:10281000B4008981891708F465CE02C083E08A83F9
:102820008A812A960FB6F894DEBF0FBECDBFCF9136
:10283000DF910895DF93CF93CDB7DEB72A970FB618
:10284000F894DEBF0FBECDBF9B838A836C83198251
:102850008A819B81009709F4B9C0EA81FB8182815A
:10286000882309F042C0A5E5B0E0E5E5F0E080810D
:102870008C7F8C938C81282F30E03A87298789853B
:102880009A858A349105B9F029853A852B3431052A
:1028900064F489859A858C309105E9F029853A851B
:1028A0002A33310509F494C01EC089859A85803683
:1028B000910549F018C0A5E5B0E0E5E5F0E08081BC
:1028C00081608C9385C0A5E5B0E0E5E5F0E080810E
:1028D00082608C937DC0A5E5B0E0E5E5F0E0808105
:1028E00083608C9375C0198273C0EA81FB818281F9
:1028F000813009F042C0A5E5B0E0E5E5F0E0808177
:10290000837F8C938C81282F30E038872F838F81B1
:1029100098858A349105B9F02F8138852B3431059B
:1029200064F48F8198858C309105E9F02F8138858A
:102930002A33310509F44CC01EC08F81988580363A
:10294000910549F018C0A5E5B0E0E5E5F0E080812B
:1029500084608C933DC0A5E5B0E0E5E5F0E08081C2
:1029600088608C9335C0A5E5B0E0E5E5F0E08081B6
:102970008C608C932DC019822BC0EA81FB818281EF
:10298000823009F58C81282F30E03E832D838D81A4
:102990009E818C30910569F02D813E812036310574
:1029A00081F4A4E5B0E0E4E5F0E080818F7B8C93D6
:1029B0000FC0A4E5B0E0E4E5F0E0808180648C9392
:1029C00007C0198205C082E0898302C083E0898341
:1029D00089812A960FB6F894DEBF0FBECDBFCF9186
:1029E000DF910895DF93CF9300D000D00F92CDB741
:1029F000DEB79B838A8319828A819B81009779F154
:102A0000EA81FB818281282F30E03D832C838C81F9
:102A10009D818130910589F02C813D8122303105E5
:102A2000A1F08C819D810097C1F4ABE5B0E0EBE5AE
:102A3000F0E0808180648C9314C0ABE5B0E0EBE5FE
:102A4000F0E0808180688C930CC0ABE5B0E0EBE5F2
:102A5000F0E0808180628C9304C0198202C083E020
:102A6000898389810F900F900F900F900F90CF91D5
:102A7000DF910895DF93CF9300D000D00F92CDB7B0
:102A8000DEB79B838A8319828A819B81009779F1C3
:102A9000EA81FB818281282F30E03D832C838C8169
:102AA0009D818130910589F02C813D812230310555
:102AB000A1F08C819D810097C1F4ABE5B0E0EBE51E
:102AC000F0E080818F7B8C9314C0ABE5B0E0EBE548
:102AD000F0E080818F778C930CC0ABE5B0E0EBE544
:102AE000F0E080818F7D8C9304C0198202C083E066
:102AF000898389810F900F900F900F900F90CF9145
:102B0000DF910895DF93CF93CDB7DEB727970FB648
:102B1000F894DEBF0FBECDBF9B838A837D836C8319
:102B20005F834E8319828A819B81009701F18C819A
:102B30009D810097E1F0EA81FB818281882F90E0FE
:102B4000880F991FFC01EC52FF4F8C819D8191836E
:102B50008083EA81FB818281882F90E0880F991F12
:102B6000FC01E652FF4F8E819F8191838083898192
:102B700027960FB6F894DEBF0FBECDBFCF91DF9181
:102B800008951F920F920FB60F9211242F933F9327
:102B90004F935F936F937F938F939F93AF93BF9365
:102BA000EF93FF93DF93CF93CDB7DEB78091D4003F
:102BB0009091D500009749F0E091D400F091D500B4
:102BC0008091DA009091DB000995CF91DF91FF9120
:102BD000EF91BF91AF919F918F917F916F915F9195
:102BE0004F913F912F910F900FBE0F901F9018950E
:102BF0001F920F920FB60F9211242F933F934F9372
:102C00005F936F937F938F939F93AF93BF93EF9354
:102C1000FF93DF93CF93CDB7DEB78091D60090912D
:102C2000D700009749F0E091D600F091D70080914D
:102C3000DC009091DD000995CF91DF91FF91EF913C
:102C4000BF91AF919F918F917F916F915F914F91C4
:102C50003F912F910F900FBE0F901F9018951F92CC
:102C60000F920FB60F9211242F933F934F935F93C0
:102C70006F937F938F939F93AF93BF93EF93FF9344
:102C8000DF93CF93CDB7DEB78091D8009091D90074
:102C9000009749F0E091D800F091D9008091DE00D2
:102CA0009091DF000995CF91DF91FF91EF91BF9156
:102CB000AF919F918F917F916F915F914F913F91D4
:102CC0002F910F900FBE0F901F901895DF93CF9309
:102CD0000F92CDB7DEB71982EAE3F0E080EA808395
:102CE000EBE3F0E080E18083E7E3F0E01082E8E3EB
:102CF000F0E01082E4E3F0E084E88083E5E3F0E0D4
:102D00001082E1E3F0E088E08083E2E3F0E010820B
:102D100089810F90CF91DF910895DF93CF9300D0F9
:102D200000D000D0CDB7DEB78A836B834C83198285
:102D30008A81843008F0D1C08B81883008F0CDC002
:102D40008C81823008F0C9C08A81282F30E03E8310
:102D50002D836D817E816130710509F441C08D81C3
:102D60009E818230910534F42D813E8121153105FB
:102D700071F0B0C06D817E816230710509F459C077
:102D80008D819E818330910509F47CC0A3C0AAE3A4
:102D9000B0E0EAE3F0E08081482F8B81282F30E01B
:102DA00081E090E002C0880F991F2A95E2F7809594
:102DB00084238C93AAE3B0E0EAE3F0E08081482F1B
:102DC0008C81282F30E08B81882F90E0B90102C0E0
:102DD000660F771F8A95E2F7CB01842B8C937AC01C
:102DE000A7E3B0E0E7E3F0E08081482F8B81282F54
:102DF00030E081E090E002C0880F991F2A95E2F749
:102E0000809584238C93A7E3B0E0E7E3F0E0808132
:102E1000482F8C81282F30E08B81882F90E0B901DA
:102E200002C0660F771F8A95E2F7CB01842B8C9343
:102E300051C0A4E3B0E0E4E3F0E08081482F8B814F
:102E4000282F30E081E090E002C0880F991F2A957A
:102E5000E2F7809584238C93A4E3B0E0E4E3F0E010
:102E60008081482F8C81282F30E08B81882F90E043
:102E7000B90102C0660F771F8A95E2F7CB01842B58
:102E80008C9328C0A1E3B0E0E1E3F0E08081482F1B
:102E90008B81282F30E081E090E002C0880F991FDD
:102EA0002A95E2F7809584238C93A1E3B0E0E1E3D7
:102EB000F0E08081482F8C81282F30E08B81882F93
:102EC00090E0B90102C0660F771F8A95E2F7CB0147
:102ED000842B8C9381E0898302C082E0898389817D
:102EE00026960FB6F894DEBF0FBECDBFCF91DF910F
:102EF0000895DF93CF9300D000D000D0CDB7DEB7D8
:102F00008A836B834C8319828A81843008F0D4C011
:102F10008B81883008F0D0C08C81823020F08C8189
:102F2000823008F0C9C08A81282F30E03E832D838B
:102F30006D817E816130710509F441C08D819E8172
:102F40008230910534F42D813E812115310571F0D7
:102F5000B0C06D817E816230710509F459C08D81E8
:102F60009E818330910509F47CC0A3C0ABE3B0E03F
:102F7000EBE3F0E08081482F8B81282F30E081E067
:102F800090E002C0880F991F2A95E2F7809584236C
:102F90008C93ABE3B0E0EBE3F0E08081482F8C81D1
:102FA000282F30E08B81882F90E0B90102C0660F96
:102FB000771F8A95E2F7CB01842B8C937AC0A8E324
:102FC000B0E0E8E3F0E08081482F8B81282F30E0EB
:102FD00081E090E002C0880F991F2A95E2F7809562
:102FE00084238C93A8E3B0E0E8E3F0E08081482FED
:102FF0008C81282F30E08B81882F90E0B90102C0AE
:10300000660F771F8A95E2F7CB01842B8C9351C012
:10301000A5E3B0E0E5E3F0E08081482F8B81282F25
:1030200030E081E090E002C0880F991F2A95E2F716
:10303000809584238C93A5E3B0E0E5E3F0E0808104
:10304000482F8C81282F30E08B81882F90E0B901A8
:1030500002C0660F771F8A95E2F7CB01842B8C9311
:1030600028C0A2E3B0E0E2E3F0E08081482F8B814A
:10307000282F30E081E090E002C0880F991F2A9548
:10308000E2F7809584238C93A2E3B0E0E2E3F0E0E2
:103090008081482F8C81282F30E08B81882F90E011
:1030A000B90102C0660F771F8A95E2F7CB01842B26
:1030B0008C9381E0898302C082E08983898126968E
:1030C0000FB6F894DEBF0FBECDBFCF91DF9108954C
:1030D000DF93CF9300D000D00F92CDB7DEB78A83B5
:1030E0006B8319828A81843008F075C08B818830A7
:1030F00008F071C08A81282F30E03D832C838C81B9
:103100009D818130910549F12C813D81223031052D
:103110002CF48C819D81009761F05AC02C813D81F7
:103120002230310571F18C819D8183309105E9F167
:103130004FC0ABE3B0E0EBE3F0E08081482F8B8140
:10314000282F30E081E090E0022E02C0880F991F06
:103150000A94E2F784278C933BC0A8E3B0E0E8E34D
:10316000F0E08081482F8B81282F30E081E090E0D3
:10317000022E02C0880F991F0A94E2F784278C93CD
:1031800027C0A5E3B0E0E5E3F0E08081482F8B8124
:10319000282F30E081E090E0022E02C0880F991FB6
:1031A0000A94E2F784278C9313C0A2E3B0E0E2E331
:1031B000F0E08081482F8B81282F30E081E090E083
:1031C000022E02C0880F991F0A94E2F784278C937D
:1031D00081E0898302C082E0898389810F900F900A
:1031E0000F900F900F90CF91DF910895DF93CF93C1
:1031F000CDB7DEB727970FB6F894DEBF0FBECDBFB1
:103200008A836B835D834C8319828C819D810097B7
:1032100009F47EC08A81843008F077C08B818830C1
:1032200008F073C08A81282F30E03F832E834E81BF
:103230005F814130510559F18E819F818230910526
:1032400034F42E813F812115310569F05BC04E8138
:103250005F814230510579F18E819F8183309105E4
:1032600009F43DC04FC0E9E3F0E08081282F30E051
:103270008B81882F90E0A90102C0559547958A95CA
:10328000E2F7CA018170EC81FD8180833BC0E6E3F7
:10329000F0E08081282F30E08B81882F90E0A90119
:1032A00002C0559547958A95E2F7CA018170EC8175
:1032B000FD81808327C0E3E3F0E08081282F30E0A8
:1032C0008B81882F90E0A90102C0559547958A957A
:1032D000E2F7CA018170EC81FD81808313C0E0E3D5
:1032E000F0E08081282F30E08B81882F90E0A901C9
:1032F00002C0559547958A95E2F7CA018170EC8125
:10330000FD81808381E0898305C082E0898302C0DA
:1033100083E08983898127960FB6F894DEBF0FBEBC
:10332000CDBFCF91DF910895DF93CF93CDB7DEB7B7
:10333000AB970FB6F894DEBF0FBECDBF1BA680E0E3
:1033400090E0A0E0B2E48FA398A7A9A7BAA76FA1C5
:1033500078A589A59AA520E030E04AE755E40E94C7
:103360001F02DC01CB018BA39CA3ADA3BEA36BA169
:103370007CA18DA19EA120E030E040E85FE30E94A7
:10338000790388232CF481E090E09AA389A33FC0BD
:103390006BA17CA18DA19EA120E03FEF4FE757E4F8
:1033A0000E94190318164CF56FA178A589A59AA556
:1033B00020E030E040E251E40E941F02DC01CB013A
:1033C000BC01CD010E944900DC01CB019AA389A375
:1033D0000FC080E991E098A38F8F8F8D98A10197FE
:1033E000F1F798A38F8F89A19AA101979AA389A336
:1033F00089A19AA1009769F714C06BA17CA18DA146
:103400009EA10E944900DC01CB019AA389A389A156
:103410009AA19E8F8D8F8D8D9E8D0197F1F79E8F36
:103420008D8F81E061E041E00E948D1681E062E0D5
:1034300041E00E948D1681E063E041E00E948D161C
:1034400080E067E041E00E948D1680E066E041E0A8
:103450000E948D1680E065E041E00E948D1680E0BC
:1034600064E041E00E948D1681E061E040E00E944E
:10347000791780E067E040E00E94791780E066E01D
:1034800040E00E94791780E065E041E00E947917F2
:1034900080E064E040E00E94791781E063E041E071
:1034A0000E94791780E090E0A0EAB0E4898F9A8FBB
:1034B000AB8FBC8F698D7A8D8B8D9C8D20E030E039
:1034C0004AE755E40E941F02DC01CB018D8B9E8BE5
:1034D000AF8BB88F6D897E898F89988D20E030E021
:1034E00040E85FE30E94790388232CF481E090E0B8
:1034F0009C8B8B8B3FC06D897E898F89988D20E056
:103500003FEF4FE757E40E94190318164CF5698DF9
:103510007A8D8B8D9C8D20E030E040E251E40E945A
:103520001F02DC01CB01BC01CD010E944900DC017E
:10353000CB019C8B8B8B0FC080E991E09A8B898BA0
:1035400089899A890197F1F79A8B898B8B899C8954
:1035500001979C8B8B8B8B899C89009769F714C092
:103560006D897E898F89988D0E944900DC01CB018D
:103570009C8B8B8B8B899C89988B8F878F85988967
:103580000197F1F7988B8F8781E063E040E00E941C
:10359000791780E090E0A0E0B2E48B879C87AD874C
:1035A000BE876B857C858D859E8520E030E04AE76F
:1035B00055E40E941F02DC01CB018F839887A98705
:1035C000BA876F81788589859A8520E030E040E868
:1035D0005FE30E94790388232CF481E090E09E83CE
:1035E0008D833FC06F81788589859A8520E03FEF84
:1035F0004FE757E40E94190318164CF56B857C853C
:103600008D859E8520E030E040E251E40E941F025B
:10361000DC01CB01BC01CD010E944900DC01CB01E2
:103620009E838D830FC080E991E09C838B838B8187
:103630009C810197F1F79C838B838D819E810197FB
:103640009E838D838D819E81009769F714C06F8161
:10365000788589859A850E944900DC01CB019E838B
:103660008D838D819E819A83898389819A81019737
:10367000F1F79A83898388E20E94B91B81E061E0B7
:1036800040E00E9479178FE00E94B91B81E061E061
:1036900040E00E94791781E00E94B91B81E061E05F
:1036A00040E00E94791786E00E94B91B8BA5AB967B
:1036B0000FB6F894DEBF0FBECDBFCF91DF91089556
:1036C000DF93CF9300D0CDB7DEB78A83198281E034
:1036D00061E041E00E9479178A810E94B91B8981CB
:1036E0000F900F90CF91DF910895DF93CF9300D08B
:1036F000CDB7DEB78A83198281E061E040E00E94A5
:1037000079178A810E94B91B89810F900F90CF9100
:10371000DF910895DF93CF9300D00F92CDB7DEB73E
:103720009B838A8319828A819B810097C9F010C08C
:1037300081E061E041E00E947917EA81FB8120810C
:103740008A819B8101969B838A83822F0E94B91B69
:10375000EA81FB818081882359F781E0898302C057
:1037600083E0898389810F900F900F90CF91DF9133
:103770000895DF93CF93CDB7DEB7EA970FB6F894ED
:10378000DEBF0FBECDBF8AAF19AE81E063E040E07F
:103790000E94791781E062E040E00E9479178AADCB
:1037A000982F991F9927991F80E067E0492F0E9461
:1037B00079178AAD8295869586958370982F91703A
:1037C00080E066E0492F0E9479178AAD8295869540
:1037D0008770982F917080E065E0492F0E947917DB
:1037E0008AAD82958F70982F917080E064E0492FA8
:1037F0000E94791781E063E041E00E94791780E040
:1038000090E0A0EAB0E48DAB9EABAFABB8AF6DA9D2
:103810007EA98FA998AD20E030E04AE755E40E94E8
:103820001F02DC01CB0189AB9AABABABBCAB69A986
:103830007AA98BA99CA920E030E040E85FE30E94D0
:10384000790388232CF481E090E098AB8FA73FC0E8
:1038500069A97AA98BA99CA920E03FEF4FE757E41B
:103860000E94190318164CF56DA97EA98FA998AD71
:1038700020E030E040E251E40E941F02DC01CB0175
:10388000BC01CD010E944900DC01CB0198AB8FA7A0
:103890000FC080E991E09EA78DA78DA59EA50197F9
:1038A000F1F79EA78DA78FA598A9019798AB8FA731
:1038B0008FA598A9009769F714C069A97AA98BA95F
:1038C0009CA90E944900DC01CB0198AB8FA78FA572
:1038D00098A99CA78BA78BA59CA50197F1F79CA7FE
:1038E0008BA781E063E040E00E94791780E090E0E0
:1038F000A0EAB1E48FA398A7A9A7BAA76FA178A55A
:1039000089A59AA520E030E04AE755E40E941F020D
:10391000DC01CB018BA39CA3ADA3BEA36BA17CA1B7
:103920008DA19EA120E030E040E85FE30E94790392
:1039300088232CF481E090E09AA389A33FC06BA177
:103940007CA18DA19EA120E03FEF4FE757E40E94AC
:10395000190318164CF56FA178A589A59AA520E042
:1039600030E040E251E40E941F02DC01CB01BC01C7
:10397000CD010E944900DC01CB019AA389A30FC0AD
:1039800080E991E098A38F8F8F8D98A10197F1F72F
:1039900098A38F8F89A19AA101979AA389A389A13E
:1039A0009AA1009769F714C06BA17CA18DA19EA17B
:1039B0000E944900DC01CB019AA389A389A19AA1A5
:1039C0009E8F8D8F8D8D9E8D0197F1F79E8F8D8FA0
:1039D0008AAD869586958695982F917080E067E0F0
:1039E000492F0E9479178AAD86958695982F9170F8
:1039F00080E066E0492F0E9479178AAD8695982F5E
:103A0000917080E065E0492F0E9479178AAD982F68
:103A1000917080E064E0492F0E94791781E063E0B3
:103A200041E00E94791780E090E0A0EAB0E4898F3D
:103A30009A8FAB8FBC8F698D7A8D8B8D9C8D20E09A
:103A400030E04AE755E40E941F02DC01CB018D8B78
:103A50009E8BAF8BB88F6D897E898F89988D20E082
:103A600030E040E85FE30E94790388232CF481E092
:103A700090E09C8B8B8B3FC06D897E898F89988D60
:103A800020E03FEF4FE757E40E94190318164CF56A
:103A9000698D7A8D8B8D9C8D20E030E040E251E481
:103AA0000E941F02DC01CB01BC01CD010E94490034
:103AB000DC01CB019C8B8B8B0FC080E991E09A8B52
:103AC000898B89899A890197F1F79A8B898B8B89E0
:103AD0009C8901979C8B8B8B8B899C89009769F7BC
:103AE00014C06D897E898F89988D0E944900DC0100
:103AF000CB019C8B8B8B8B899C89988B8F878F8537
:103B000098890197F1F7988B8F8781E063E040E017
:103B10000E94791780E090E0A0E0B2E48B879C8758
:103B2000AD87BE876B857C858D859E8520E030E0E6
:103B30004AE755E40E941F02DC01CB018F8398877E
:103B4000A987BA876F81788589859A8520E030E0DA
:103B500040E85FE30E94790388232CF481E090E041
:103B60009E838D833FC06F81788589859A8520E00B
:103B70003FEF4FE757E40E94190318164CF56B8589
:103B80007C858D859E8520E030E040E251E40E94F6
:103B90001F02DC01CB01BC01CD010E944900DC0108
:103BA000CB019E838D830FC080E991E09C838B8342
:103BB0008B819C810197F1F79C838B838D819E8102
:103BC00001979E838D838D819E81009769F714C034
:103BD0006F81788589859A850E944900DC01CB0137
:103BE0009E838D838D819E819A83898389819A8129
:103BF0000197F1F79A83898389ADEA960FB6F89415
:103C0000DEBF0FBECDBFCF91DF910895DF93CF937D
:103C1000CDB7DEB72B970FB6F894DEBF0FBECDBF82
:103C2000688779878A879B871F821B821C821D82F7
:103C30001E821A82198288859985AA85BB85BB2335
:103C40000CF057C081E061E041E00E9479178DE2FD
:103C50000E94B91B88859985AA85BB85B095A095DA
:103C6000909581959F4FAF4FBF4F88879987AA87BF
:103C7000BB873FC088859985AA85BB852AE030E04F
:103C800040E050E0BC01CD010E94C026DC01CB0128
:103C90008A838B819C81AD81BE812AE030E040E047
:103CA00050E0BC01CD010E947F269B01AC018A81BE
:103CB000882F90E0A0E0B0E0820F931FA41FB51FF3
:103CC0008B839C83AD83BE8388859985AA85BB85BC
:103CD0002AE030E040E050E0BC01CD010E94C02667
:103CE000DA01C90188879987AA87BB8789818F5F95
:103CF000898388859985AA85BB850097A105B1052B
:103D000009F0B8CF2DC08B819C81AD81BE812AE0A6
:103D100030E040E050E0BC01CD010E94C026DC0153
:103D2000CB018A8381E061E041E00E9479178A81BA
:103D3000805D0E94B91B8B819C81AD81BE812AE090
:103D400030E040E050E0BC01CD010E94C026DA0125
:103D5000C9018B839C83AD83BE8389818150898314
:103D60008981882381F68F812B960FB6F894DEBF68
:103D70000FBECDBFCF91DF9108950F931F93DF93B7
:103D8000CF93CDB7DEB7C658D0400FB6F894DEBF9C
:103D90000FBECDBFCE018F579F4F26E0FC01DF0144
:103DA000822F1D928A95E9F70E94941981E060E0C4
:103DB00041E00E948D1681E061E041E00E948D1695
:103DC00081E062E041E00E948D1681E063E041E025
:103DD0000E948D1682E065E041E00E948D1682E02F
:103DE00065E041E00E947917FE01E558FF4F80E051
:103DF00090E0A8ECB2E480839183A283B3838E0128
:103E000009581F4FFE01E558FF4F60817181828183
:103E1000938120E030E04AE755E40E941F02DC0174
:103E2000CB01F80180839183A283B383FE01E9581B
:103E3000FF4F608171818281938120E030E040E812
:103E40005FE30E947903882344F4FE01EB58FF4F9F
:103E500081E090E09183808364C0FE01E958FF4FC8
:103E6000608171818281938120E03FEF4FE757E4C9
:103E70000E94190318160CF043C0FE01E558FF4FCD
:103E8000608171818281938120E030E040E251E4E1
:103E90000E941F02DC01CB018E010B581F4FBC0199
:103EA000CD010E944900DC01CB01F80191838083A0
:103EB0001FC0FE01ED58FF4F80E991E091838083A0
:103EC000FE01ED58FF4F808191810197F1F7FE01CE
:103ED000ED58FF4F91838083DE01AB58BF4FFE0149
:103EE000EB58FF4F80819181019711969C938E939F
:103EF000FE01EB58FF4F808191810097D1F627C0DA
:103F00008E010B581F4FFE01E958FF4F60817181F0
:103F1000828193810E944900DC01CB01F8019183E9
:103F20008083DE01AF58BF4FFE01EB58FF4F808109
:103F300091818D939C93FE01EF58FF4F8081918179
:103F40000197F1F7FE01EF58FF4F9183808382E0E4
:103F500065E040E00E9479178EE990E00E94A30599
:103F600026EC35E2AE014F575F4F80E0B9010E9469
:103F7000080C22EE35E2AE014F575F4F84E0B901E5
:103F80000E94080C87E160EA70E00E94310A82E03A
:103F900062E041E00E948D1682E062E040E00E9413
:103FA0007917FE01E359FF4F80E090E0AAEFB3E4F8
:103FB00080839183A283B3838E0107591F4FFE0133
:103FC000E359FF4F608171818281938120E030E06D
:103FD0004AE755E40E941F02DC01CB01F80180830F
:103FE0009183A283B383FE01E759FF4F6081718102
:103FF0008281938120E030E040E85FE30E94790312
:10400000882344F4FE01E959FF4F81E090E0918359
:10401000808364C0FE01E759FF4F60817181828116
:10402000938120E03FEF4FE757E40E9419031816F1
:104030000CF043C0FE01E359FF4F60817181828122
:10404000938120E030E040E251E40E941F02DC0155
:10405000CB018E0109591F4FBC01CD010E944900BF
:10406000DC01CB01F801918380831FC0FE01EB5975
:10407000FF4F80E991E091838083FE01EB59FF4F70
:10408000808191810197F1F7FE01EB59FF4F9183F8
:104090008083DE01A959BF4FFE01E959FF4F80819E
:1040A0009181019711969C938E93FE01E959FF4FE0
:1040B000808191810097D1F627C08E0109591F4F49
:1040C000FE01E759FF4F60817181828193810E94D7
:1040D0004900DC01CB01F80191838083DE01AD59F9
:1040E000BF4FFE01E959FF4F808191818D939C93D1
:1040F000FE01ED59FF4F808191810197F1F7FE019B
:10410000ED59FF4F9183808385EB90E00E945E1212
:1041100085EB90E020E835E2AE014F575F4FB901E3
:104120000E94821583E063E040E00E948D1683E0E8
:1041300063E040E00E9479178FEA90E00E94170E3A
:1041400083E067E041E00E948D1689E263E170E060
:104150000E944B11FE01E15AFF4F80E090E0A8EC75
:10416000B3E480839183A283B3838E01055A1F4FEA
:10417000FE01E15AFF4F608171818281938120E0CD
:1041800030E04AE755E40E941F02DC01CB01F80150
:1041900080839183A283B383FE01E55AFF4F608140
:1041A00071818281938120E030E040E85FE30E94EA
:1041B0007903882344F4FE01E75AFF4F81E090E041
:1041C0009183808364C0FE01E55AFF4F6081718155
:1041D0008281938120E03FEF4FE757E40E9419036B
:1041E00018160CF043C0FE01E15AFF4F6081718147
:1041F0008281938120E030E040E251E40E941F027E
:10420000DC01CB018E01075A1F4FBC01CD010E947A
:104210004900DC01CB01F801918380831FC0FE01BE
:10422000E95AFF4F80E991E091838083FE01E95ACA
:10423000FF4F808191810197F1F7FE01E95AFF4F0D
:1042400091838083DE01A75ABF4FFE01E75AFF4FDB
:1042500080819181019711969C938E93FE01E75A7C
:10426000FF4F808191810097D1F627C08E01075AB8
:104270001F4FFE01E55AFF4F60817181828193815A
:104280000E944900DC01CB01F80191838083DE01AB
:10429000AB5ABF4FFE01E75AFF4F808191818D934A
:1042A0009C93FE01EB5AFF4F808191810197F1F7BA
:1042B000FE01EB5AFF4F918380830E944C12CE0186
:1042C0008F579F4F0E94F524FE01E158FF4F9183C5
:1042D0008083FE01E158FF4F808191818F319105EC
:1042E00070F089E00E94F8250AC0CE018F579F4FD9
:1042F0000E94F524FE01E158FF4F91838083FE0167
:10430000E158FF4F808191818F31910570F780E0F6
:104310000E94F82589E264E070E00E944B11FE01E2
:10432000EF5AFF4F80E090E0A8ECB2E480839183E5
:10433000A283B3838E01035B1F4FFE01EF5AFF4F31
:10434000608171818281938120E030E04AE755E409
:104350000E941F02DC01CB01F80180839183A283BC
:10436000B383FE01E35BFF4F6081718182819381A2
:1043700020E030E040E85FE30E947903882344F4C2
:10438000FE01E55BFF4F81E090E09183808364C094
:10439000FE01E35BFF4F608171818281938120E0A8
:1043A0003FEF4FE757E40E94190318160CF043C083
:1043B000FE01EF5AFF4F608171818281938120E07D
:1043C00030E040E251E40E941F02DC01CB018E018B
:1043D000055B1F4FBC01CD010E944900DC01CB01F0
:1043E000F801918380831FC0FE01E75BFF4F80E9E6
:1043F00091E091838083FE01E75BFF4F8081918193
:104400000197F1F7FE01E75BFF4F91838083DE01A7
:10441000A55BBF4FFE01E55BFF4F80819181019756
:1044200011969C938E93FE01E55BFF4F80819181F5
:104430000097D1F627C08E01055B1F4FFE01E35B9D
:10444000FF4F60817181828193810E944900DC016C
:10445000CB01F80191838083DE01A95BBF4FFE0190
:10446000E55BFF4F808191818D939C93FE01E95B19
:10447000FF4F808191810197F1F7FE01E95BFF4FCA
:1044800091838083CE018F579F4F0E94F524FE01B8
:10449000E158FF4F9183808389E262E270E00E94DD
:1044A0004B11FE01ED5BFF4F80E090E0A8E4B3E428
:1044B00080839183A283B3838E01015C1F4FFE0131
:1044C000ED5BFF4F608171818281938120E030E05C
:1044D0004AE755E40E941F02DC01CB01F80180830A
:1044E0009183A283B383FE01FF96608171818281F3
:1044F000938120E030E040E85FE30E947903882365
:104500002CF481E090E09EAF8DAF46C0FE01FF9697
:10451000608171818281938120E03FEF4FE757E412
:104520000E941903181664F5FE01ED5BFF4F6081D0
:1045300071818281938120E030E040E251E40E9469
:104540001F02DC01CB01BC01CD010E944900DC014E
:10455000CB019EAF8DAF0FC080E991E09CAF8BAFD8
:104560008BAD9CAD0197F1F79CAF8BAF8DAD9EAD40
:1045700001979EAF8DAF8DAD9EAD009769F716C0C8
:10458000FE01FF9660817181828193810E944900C2
:10459000DC01CB019EAF8DAF8DAD9EAD9AAF89AFE3
:1045A00089AD9AAD0197F1F79AAF89AFCE018F57D8
:1045B0009F4F0E94F5249093E1008093E00089E2F0
:1045C00063E170E00E944B11FE01E158FF4F8081D2
:1045D00091818F31910540F48091E0009091E1004C
:1045E0008F31910508F40CC18091E0009091E100B9
:1045F000FE01E158FF4F208131812817390708F467
:1046000079C088E00E94F82580E090E0ACE8B3E44F
:104610008DAB9EABAFABB8AF6DA97EA98FA998AD9E
:1046200020E030E04AE755E40E941F02DC01CB01A4
:1046300089AB9AABABABBCAB69A97AA98BA99CA996
:1046400020E030E040E85FE30E94790388232CF407
:1046500081E090E098AB8FA73FC069A97AA98BA9A8
:104660009CA920E03FEF4FE757E40E94190318167A
:104670004CF56DA97EA98FA998AD20E030E040E20D
:1046800051E40E941F02DC01CB01BC01CD010E945C
:104690004900DC01CB0198AB8FA70FC080E991E006
:1046A0009EA78DA78DA59EA50197F1F79EA78DA723
:1046B0008FA598A9019798AB8FA78FA598A9009768
:1046C00069F714C069A97AA98BA99CA90E9449001D
:1046D000DC01CB0198AB8FA78FA598A99CA78BA7CE
:1046E0008BA59CA50197F1F79CA78BA780E00E9462
:1046F000F825E5CD8091E0009091E100FE01E158C0
:10470000FF4F208131812817390708F0D8CD81E08B
:104710000E94F82580E090E0ACE8B3E48FA398A76E
:10472000A9A7BAA76FA178A589A59AA520E030E02E
:104730004AE755E40E941F02DC01CB018BA39CA336
:10474000ADA3BEA36BA17CA18DA19EA120E030E012
:1047500040E85FE30E94790388232CF481E090E035
:104760009AA389A33FC06BA17CA18DA19EA120E04B
:104770003FEF4FE757E40E94190318164CF56FA15D
:1047800078A589A59AA520E030E040E251E40E9496
:104790001F02DC01CB01BC01CD010E944900DC01FC
:1047A000CB019AA389A30FC080E991E098A38F8FD2
:1047B0008F8D98A10197F1F798A38F8F89A19AA166
:1047C00001979AA389A389A19AA1009769F714C0B8
:1047D0006BA17CA18DA19EA10E944900DC01CB01AF
:1047E0009AA389A389A19AA19E8F8D8F8D8D9E8D6D
:1047F0000197F1F79E8F8D8F80E00E94F8255FCDA5
:1048000082E065E041E00E94791780E090E0A8EC4A
:10481000B2E4898F9A8FAB8FBC8F698D7A8D8B8D27
:104820009C8D20E030E04AE755E40E941F02DC0145
:10483000CB018D8B9E8BAF8BB88F6D897E898F89D5
:10484000988D20E030E040E85FE30E947903882300
:104850002CF481E090E09C8B8B8B3FC06D897E892E
:104860008F89988D20E03FEF4FE757E40E941903AE
:1048700018164CF5698D7A8D8B8D9C8D20E030E07B
:1048800040E251E40E941F02DC01CB01BC01CD01DA
:104890000E944900DC01CB019C8B8B8B0FC080E90F
:1048A00091E09A8B898B89899A890197F1F79A8B84
:1048B000898B8B899C8901979C8B8B8B8B899C899D
:1048C000009769F714C06D897E898F89988D0E9441
:1048D0004900DC01CB019C8B8B8B8B899C89988B4D
:1048E0008F878F8598890197F1F7988B8F8782E062
:1048F00065E040E00E94791785E00E94F82580E09D
:1049000090E0A6E9B3E48B879C87AD87BE876B8573
:104910007C858D859E8520E030E04AE755E40E9445
:104920001F02DC01CB018F839887A987BA876F812B
:10493000788589859A8520E030E040E85FE30E9431
:10494000790388232CF481E090E09E838D833FC01F
:104950006F81788589859A8520E03FEF4FE757E49E
:104960000E94190318164CF56B857C858D859E85F4
:1049700020E030E040E251E40E941F02DC01CB0164
:10498000BC01CD010E944900DC01CB019E838D83D7
:104990000FC080E991E09C838B838B819C81019780
:1049A000F1F79C838B838D819E8101979E838D83FC
:1049B0008D819E81009769F714C06F817885898504
:1049C0009A850E944900DC01CB019E838D838D81F5
:1049D0009E819A83898389819A810197F1F79A83CD
:1049E000898380E00E94F8256ACCDF93CF93CDB70E
:1049F000DEB728970FB6F894DEBF0FBECDBF9887FD
:104A00008F831E821D8265C082E062E041E00E94C9
:104A1000791786EA90E061E00E94CC0986EA90E08E
:104A200060E070E00E94E70AEF81F8851282EF8172
:104A3000F88582818230D9F785EB90E06CE00E94A6
:104A40001A14EF81F88584819581CC01A0E0B0E053
:104A50002227382F492F5A2FEF81F8858381882FFD
:104A600090E0A0E0B0E0820F931FA41FB51F28EED6
:104A700033E040E050E0BC01CD010E947F26DC0124
:104A8000CB0120E83EE340E050E0BC01CD010E94B4
:104A90009E26DA01C90189839A83AB83BC8389810D
:104AA0009A81AB81BC8122E230E040E050E0BC0161
:104AB000CD010E947F26DC01CB0120ED37E040E0F4
:104AC00050E0BC01CD010E94C026DA01C9019E83DD
:104AD0008D838D819E81009709F496CF8D819E8173
:104AE00021E08139920708F08FCF8D819E81289631
:104AF0000FB6F894DEBF0FBECDBFCF91DF91089502
:104B0000DF93CF9300D000D0CDB7DEB79C838B83EB
:104B10008B819C819A838983E981FA8182818823B0
:104B2000A1F4E981FA81118210828EE990E060E0BF
:104B300070E00E94E70A85EB90E060E60E941A149C
:104B4000E981FA8181E082831AC0E981FA81828158
:104B50008130A9F489819A8103969C018EE990E0C5
:104B6000B9010E948A0AE981FA8180819181E981F3
:104B7000FA8195838483E981FA8182E082830F90B0
:104B80000F900F900F90CF91DF910895DF93CF9307
:104B900000D000D0CDB7DEB79C838B838B819C8106
:104BA0009A838983E981FA81808191810196E981E3
:104BB000FA81918380830F900F900F900F90CF9187
:104BC000DF910895DF93CF9300D0CDB7DEB79A83FE
:104BD000898382E062E040E00E94791786EA90E0F3
:104BE00060E00E94CC090F900F90CF91DF91089563
:104BF000DF93CF930F92CDB7DEB789838981882366
:104C000019F581E060E040E00E94791781E061E001
:104C100040E00E94791781E062E040E00E9479174D
:104C200081E063E040E00E94791780E80E94751BF4
:104C300080E690E00E948A1B80E80E94751B8AE64D
:104C400090E00E948A1B57C080E80E94751B80E696
:104C500090E00E948A1B80E80E94751B8981893040
:104C600029F48FE690E00E948A1B1FC0898188305A
:104C700029F487E790E00E948A1B17C08981813060
:104C800029F48DE790E00E948A1B0FC0898186304D
:104C900029F482E890E00E948A1B07C08981853050
:104CA00021F48BE890E00E948A1B8981982F9170F3
:104CB00081E060E0492F0E94791789818695982FBD
:104CC000917081E061E0492F0E9479178981869572
:104CD0008695982F917081E062E0492F0E947917A4
:104CE0008981869586958695982F917081E063E0FD
:104CF000492F0E9479170F90CF91DF910895629FFD
:104D0000D001739FF001829FE00DF11D649FE00DC3
:104D1000F11D929FF00D839FF00D749FF00D659F24
:104D2000F00D9927729FB00DE11DF91F639FB00D23
:104D3000E11DF91FBD01CF0111240895A1E21A2E32
:104D4000AA1BBB1BFD010DC0AA1FBB1FEE1FFF1F2F
:104D5000A217B307E407F50720F0A21BB30BE40B7F
:104D6000F50B661F771F881F991F1A9469F76095C6
:104D70007095809590959B01AC01BD01CF01089580
:104D800097FB092E05260ED057FD04D0D7DF0AD099
:104D9000001C38F450954095309521953F4F4F4F6A
:104DA0005F4F0895F6F790958095709561957F4FC8
:104DB0008F4F9F4F08952F923F924F925F926F9225
:104DC0007F928F929F92AF92BF92CF92DF92EF929B
:104DD000FF920F931F93CF93DF93CDB7DEB7CA1B1C
:104DE000DB0B0FB6F894DEBF0FBECDBF09942A8847
:104DF000398848885F846E847D848C849B84AA84EF
:104E0000B984C884DF80EE80FD800C811B81AA817B
:104E1000B981CE0FD11D0FB6F894DEBF0FBECDBF46
:084E2000ED010895F894FFCFA5
:104E28002020202020202020200053746F7000466E
:104E38006F7277617264005269676874004C6566C6
:104E480074004261636B77617264005475726E52CC
:104E58006F756E64000000000000000000024B0047
:104E680000000101000022040000000001000158B8
:084E780003020007010C010117
:00000001FF
